:02000002B0004C
:1040000000400B008C650B00000006000C00050250
:084010000401E50C00000000B2
:044018000C610B002C
:10401C0009480A49884208B505D0094A824202D0AB
:10402C00121A01F0B1FF0748074A0021121A01F0D9
:10403C00B9FF014808BD00BF0CE60320F8640B0073
:10404C0078E6032078E60320EDE7032070B5074EF1
:10405C00074C01F00DFEA41BA4080025AC4200D1B6
:10406C0070BD56F8043B98470135F7E7A0640B0088
:10407C00C4640B0000F0A2B808B500F0A9F8BDE8C4
:10408C00084001F0ADBD00F0D3BE00F0D1BE00F091
:10409C00D7BE00F0D5BE0078B0FA80F0400970476A
:1040AC00012303707047000010B50B4C0B490C4AF0
:1040BC00204600F072FB41F2883000F0E9FE094A1C
:1040CC000649204600F069FB2046074A0749BDE82F
:1040DC00104000F062BB00BF78E6032022610B00A9
:1040EC0020610B002C610B002E610B0030610B006A
:1040FC0010B50B4C0B490C4A204600F04EFB41F21C
:10410C00883000F0C5FE094A0649204600F045FB00
:10411C002046074A0749BDE8104000F03EBB00BFEF
:10412C0078E6032030610B0020610B002C610B0042
:10413C002E610B0022610B00F0B502F1080323F095
:10414C00070385B000AFADEB030D1446684601F0D4
:10415C001BFF0026694638460DF8046001F0C5F8CF
:10416C001349144C384601F0E6F80546384601F080
:10417C0071F81DB12670FFF797FF16E069463846B7
:10418C0001F0B3F80C49384601F0D5F8054638462D
:10419C0001F060F825B101232370FFF7A9FF04E0BB
:1041AC002378002BE7D0012BF7D01437BD46F0BD98
:1041BC0020610B00D8E603202C610B0008B501F040
:1041CC0089FCBDE808404FF4165101F077BC0000A3
:1041DC001FB5124800F066F948B111490F4800F0BC
:1041EC0080FC0E4805B05DF804EB00F032BB68466D
:1041FC0000F0AEFD0099094800F044FA684601F061
:10420C0029F8084A0849054800F0C7FA074A08493E
:10421C00024805B05DF804EB00F0BFBA78E6032065
:10422C003B610B002C610B0022610B002E610B001B
:10423C0030610B0007B50021012000F06DFD00235B
:10424C0000930549054B064840F25B7200F04EF8AE
:10425C0003B05DF804FB00BF47610B0045410B0048
:10426C0078E6032091F85C3010B50446016013B178
:10427C00886D00F041FC204610BD10B5036893F822
:10428C005C20044612B1986D00F03EFC204610BD37
:10429C00F8B51F469DF8243004460D4616462BB142
:1042AC00012380F85C30583000F01EFC089B23631F
:1042BC000023636306B1A66425B1294604F13800D6
:1042CC0001F027F8069B2365079BE069A4F84C7066
:1042DC00FF2BB8BFFF23A4F8543008B1FFF7D7FE6B
:1042EC00B4F85400FFF7D1FEE061F8BD2DE9FF41B1
:1042FC0004460025174698460E4601F01DFB0D4955
:10430C00E56104F1380000F0F0FF9DF82830A56459
:10431C00CDE90283FF220F23CDE90032204684F839
:10432C005C503B462A463146FFF7B2FF204604B0AC
:10433C00BDE8F0812D610B0010B50446204601F05C
:10434C0057FA0028FAD0204601F03CF8C0B210BD54
:10435C002DE9F04705468846FFF7EEFFEB6918702C
:10436C00EB6993F800A04FF001090AF0F00A00275E
:10437C004C462846FFF7E0FF2646EB69985500F0BF
:10438C007F0313FB09F31F4401340306A4B2BFB22D
:10439C004FEAC919EDD4631EBAF1300F88F800301A
:1043AC001ED12846FFF7C8FFEB6918552846FFF7C2
:1043BC00C3FFF41C0236B6B2EB69A4B298550226C0
:1043CC00B6B2BE420ED22846FFF7B6FFB5F854304F
:1043DC00A34284BFEB6918550134A4B20136EFE750
:1043EC000026EDE7B5F85430A3422CBF2046002040
:1043FC00BDE8F0872DE9F34115461E461A460746DF
:10440C000023964602A802F07F0CBEF17F0F03F149
:10441C000104034488BF4CF0800CBEF17F0F4FEABF
:10442C00D212E4B203F804CC1ED8C4F10403C4F1D4
:10443C000500E954224601A9284405EB030801F0C4
:10444C00A3FD721C22444146384600F0A6FF0546E7
:10445C0000F072FB621C78623244A8B2131A584204
:10446C00584102B0BDE8F0812346CAE70233F0B5EB
:10447C00054698B20023CE5C9CB256B1B5F854C038
:10448C00844503F1010704D9441C16543B46A0B2E1
:10449C00F1E799B2411A0A44210A02F8021C02F807
:1044AC00013CF0BD38B5044601F0C4F8002814BF37
:1044BC000125002502D1204601F0F4F9284638BD2B
:1044CC002DE9F04788B00446DDF840809DF850A0F7
:1044DC00894617461E46FFF7E5FF0546002840F0C3
:1044EC00CD80214601A8FFF7BDFEA16C002940F04C
:1044FC008880B4F84C20A16B2B46204601F01CF8A8
:10450C0000287AD0012323849DF85430E269042BCF
:10451C005B4B40F08180186899889B79ADF80C1042
:10452C008DF80E300290C2F805009DF80E30BDF8E3
:10453C000C10A2F80910D3720C23B8F1000F00F084
:10454C0081809DF848009DF84420400140EAC2005B
:10455C0040F00600C0B2BAF1000F01D100F0FD002E
:10456C001FB1002E70D140F08000E269D054226D52
:10457C00E169581C12120A549A1CE169206D885486
:10458C000333E26949462046FFF770FF0346B8F152
:10459C00000F0BD0E26941462046FFF767FFE26946
:1045AC00139903462046FFF761FF034667B1E269A2
:1045BC0039462046FFF75AFF03462EB1E2693146D1
:1045CC002046FFF753FF0346053BE2699BB21021DF
:1045DC002046FFF70FFF00F0AFFAC4E909004FF4D3
:1045EC007A76204601F004F988BB00F0A5FAA36A9C
:1045FC00C01A236D73439842F3D9204601F052F947
:10460C0035E002A800F00CFDB4F84C202B4602A9B2
:10461C00204601F071F873E7D3F80700D3F80B10BC
:10462C00DB7B0DF1080CACE803008CF8003002AB1E
:10463C0003CBC2F80500C2F809109CF80030537384
:10464C000E237AE7022086E740F0C0008DE702A92E
:10465C002046FFF77DFE0428CFD1E369DE78002EDB
:10466C00CBD100F069FA0125A06284F82C6001A876
:10467C00FFF703FE284608B0BDE8F0870025F9E7F0
:10468C0056610B007FB501230422CDE904320023CF
:10469C00CDE90233CDE900331A46FFF711FF07B01D
:1046AC005DF804FB2DE9F74FDDF83C809DF83450A4
:1046BC009DF8389004468B4616461F46FFF7F2FECF
:1046CC008246002851D0214601A8FFF7CBFDB4F853
:1046DC005420E069002101F065FC0523E26959468C
:1046EC002046FFF7C3FE6B1E012B15D8218CE36906
:1046FC00013189B22184090A1954421CE369218CC5
:10470C0092B20230995480B2B8F1000F04D0238CCD
:10471C005A1C2284A8F8003000210B188F42E26941
:10472C009BB20AD9B4F854C09C4506D916F801C0FE
:10473C0002F803C0013189B2EFE79DF8301000296F
:10474C000CBF30213121B9F1000F01D041F008012B
:10475C00022D0ED141F00401053B9BB22046FFF720
:10476C0049FE824601A8FFF788FD504603B0BDE81C
:10477C00F08F012D08BF41F00201EDE71FB5089C39
:10478C000394002402949DF81C4001949DF8184059
:10479C000094FFF787FF04B010BD30B587B0044616
:1047AC0010460591049201F03DFC00250346CDE92D
:1047BC000155DDE9042100952046FFF7DFFF07B026
:1047CC0030BD73B504460E46FFF76CFE0546C8B106
:1047DC00214601A8FFF746FDE36962221A70E369DE
:1047EC0002225A70E369320A9A70E369DE70E16959
:1047FC000422204600F0D1FD051E01A818BF01259A
:10480C00FFF73BFD284602B070BD73B504460E465B
:10481C00FFF748FE0546C8B1214601A8FFF722FD67
:10482C00E36972221A70E36902225A70E369320A50
:10483C009A70E369DE70E1690422204600F0ADFD58
:10484C00051E01A818BF0125FFF717FD284602B069
:10485C0070BD2DE9F04F2DED028B87B000AF0446F3
:10486C00FFF720FE8146F8B1214607F11400FFF74F
:10487C00F9FC00F061F9236D4FF47A725343A26A8C
:10488C00821A9A42064603D8626A821A934221D24D
:10489C0094F82C307BB1204601F004F84FF000095D
:1048AC0007F11400FFF7E9FC48461C37BD46BDEC88
:1048BC00028BBDE8F08FE269C0211170E269537080
:1048CC00E1690222204600F068FDC4E90966012373
:1048DC0084F82C30204600F08BFF0028E0D007F144
:1048EC0013012046FFF734FD83460028D8D0E36936
:1048FC00A662197801F0F002302A7FD1D4F830A0EA
:10490C00BAF1000FCCD097F813C06A4608EE102A03
:10491C0003EB0C025178957805EB0125ADB205F14E
:10492C0008026946D208A1EBC20295460CF10302BB
:10493C00FA6003EB020E0DEB05026846C7F808D0CF
:10494C007A60D7E901218A4206D00A461EF8018B0B
:10495C0002F8018BBA60F4E70022425593F800800C
:10496C00F96808F00608ABEB0C02033AB8F1020F39
:10497C00A2EB0502294425D113F801E01944023AAF
:10498C0091F801B00CF10501294419440BEB0E2BE5
:10499C00D047E36940221A70E3691FFA8BFB83F856
:1049AC000180E3694FEA1B229A70E36983F803B034
:1049BC00E1690422204600F0F0FC666218EE103A21
:1049CC009D466DE7B8F1040F15D113F801E01944B9
:1049DC00023A91F801B00CF10501294419440BEB92
:1049EC000E2BD047E36950221A70E36902221FFA9A
:1049FC008BFB5A70D5E71944D047DFE7502A08D112
:104A0C009A78D97801EB022189B22046FFF7D9FEBA
:104A1C0046E7402A12D1626B002A3FF441AFBBF14A
:104A2C00040F7FF43DAF11F0060F7FF439AF997886
:104A3C00D87800EB012080B2904731E7602A08D18A
:104A4C009A78D97801EB022189B22046FFF7DDFE76
:104A5C0026E7702ADFD0902A3FF422AFC02A0AD171
:104A6C00D0221A70E36900225A70E16902222046B2
:104A7C0000F093FC14E7D02A04BF002384F82C30F8
:104A8C000EE7F7B504460F461646FFF70BFD054635
:104A9C0010B3214601A8FFF7E5FB238C01339BB231
:104AAC00EBB12384238CE2691B0A5371E369228CDA
:104ABC009A71E269072339462046FFF7D7FCE36970
:104ACC001E54043883B2E26982212046FFF792FC1F
:104ADC00054601A8FFF7D1FB284603B0F0BD012322
:104AEC00DFE70022FFF7CDBF08B5024B1B681B6B3D
:104AFC00019308BD4802030008B5024B1B689B6B71
:104B0C00019308BD4802030008B5024B1B681B6CDF
:104B1C00019308BD4802030008B5024B1B685B6C8F
:104B2C00019308BD4802030008B5024B1B685B6883
:104B3C00019308BD1802030008B5024B1B685B69A2
:104B4C00019308BD1802030008B5024B1B685B6992
:104B5C00019308BD6C02030008B5024B1B685B692E
:104B6C00019308BD6402030008B5024B1B681B6A65
:104B7C00019308BD6402030008B5024B1B689B6AD5
:104B8C00019308BD6402030008B5024B1B689B68C7
:104B9C00019308BD6802030008B5024B1B68DB6873
:104BAC00019308BD6802030008B5024B1B689B69A2
:104BBC00019308BD3802030008B5024B1B68DB6982
:104BCC00019308BD3802030008B5024B1B681B6A31
:104BDC00019308BD3802030008B5024B1B689B6AA1
:104BEC00019308BD3802030008B5024B1B681B6B10
:104BFC00019308BD3802030008B5024B1B689B6B80
:104C0C00019308BD3802030008B5024B1B68DB6832
:104C1C00019308BD3C02030008B5024B1B681B69DD
:104C2C00019308BD3C02030008B5024B1B685B698D
:104C3C00019308BD3C02030008B5024B1B689B693D
:104C4C00019308BD3C02030008B5024B1B68DB69ED
:104C5C00019308BD3C02030008B5024B1B689B6A1C
:104C6C00019308BD3C02030008B5024B1B681B6C8A
:104C7C00019308BD3C02030008B5024B1B681B687E
:104C8C00019308BD4C02030008B5024B1B685B681E
:104C9C00019308BD4C02030008B5024B1B681B694D
:104CAC00019308BD4C02030008B5024B1B685B69FD
:104CBC00019308BD4C02030008B5024B1B689B69AD
:104CCC00019308BD4C02030008B5024B1B68DB695D
:104CDC00019308BD4C02030008B5024B1B681B6A0C
:104CEC00019308BD4C02030008B5024B1B681B6DF9
:104CFC00019308BD6002030008B5024B1B685B689A
:104D0C00019308BD2002030008B5024B1B685B69C8
:104D1C00019308BD2002030008B5024B1B68DB6A37
:104D2C00019308BD2002030008B5034B1B68D3F8A0
:104D3C008830019308BD00002002030008B5034B26
:104D4C001B68D3F89430019308BD000020020300C7
:104D5C0008B5024B1B68DB69019308BD44020300D4
:104D6C0008B5024B1B68DB6B019308BD44020300C2
:104D7C0008B5024B1B685B68019308BD4002030039
:104D8C0008B5024B1B689B68019308BD40020300E9
:104D9C0008B5024B1B68DB68019308BD4002030099
:104DAC0008B5024B1B681B69019308BD4002030048
:104DBC0008B5024B1B685B69019308BD40020300F8
:104DCC0008B5024B1B689B69019308BD40020300A8
:104DDC0008B5024B1B68DB69019308BD4002030058
:104DEC0008B5024B1B681B6A019308BD4002030007
:104DFC0008B5024B1B681B6B019308BD40020300F6
:104E0C0008B5024B1B685B6B019308BD40020300A5
:104E1C0008B5024B1B681B6C019308BD40020300D4
:104E2C0008B5024B1B685B6C019308BD4002030084
:104E3C0008B5024B1B681B68019308BD1C020300DC
:104E4C0008B5024B1B685B68019308BD1C0203008C
:104E5C0008B5024B1B689B68019308BD1C0203003C
:104E6C0008B5024B1B68DB6B019308BD1C020300E9
:104E7C0008B5024B1B681B6C019308BD1C02030098
:104E8C0008B5024B1B685B6C019308BD1C02030048
:104E9C000021FFF739BF0000024800230360FFF731
:104EAC003BBE00BFDCE60320002240681146FFF742
:104EBC0097BF002240681146FFF7A2BF406800224E
:104ECC00FFF796BF4068002281F00101FFF780BF19
:104EDC00002340681A461946FFF772BF002340684A
:104EEC001A461946FFF764BF002240681146FFF7C7
:104EFC0057BF002240681146FFF742BF40680022AE
:104F0C000221FFF745BF002340681A46FFF730BF68
:104F1C00024B03225A60024A1A607047E0E60320F3
:104F2C0078610B00704710B518210446FFF7B1F8F3
:104F3C00204610BDF0B5037D062B8DB00E4600F15A
:104F4C0004074FF0000412D000F1080515F8011DFC
:104F5C000A22304600F059F9AF42044419D0002C13
:104F6C00F4D02E21304600F04DF90444EEE72F2307
:104F7C006A4639460A208DF80040FFF7EDFD684679
:104F8C0001F050F833680246DB68694630469847B2
:104F9C00044620460DB0F0BD10B5054B0446112259
:104FAC0040F8043B002100F0FDFF204610BD00BF7F
:104FBC00B4610B000346074A10B543F8042B01F10A
:104FCC00100251F8044B43F8044B9142F9D10A7882
:104FDC001A7010BDB4610B00037D042B04D1406822
:104FEC00003818BF01207047062B07D143683BB926
:104FFC0083682BB9C3681BB90069F1E700207047BF
:10500C000120704710B59DF8084044EA032343EA99
:10501C00024242EA016104234160037510BD0000A5
:10502C0007B5064B0360CB7800938B784A780978E8
:10503C00FFF7E8FF03B05DF804FB00BFB4610B00A1
:10504C00014B024A1A607047E8E60320C0610B006E
:10505C00002340681A46FFF78BBE406800220221ED
:10506C00FFF796BE002240681146FFF789BE00226A
:10507C0040681146FFF794BE002340681A46194653
:10508C00FFF796BE002340681A461946FFF798BEF4
:10509C0040680021FFF7BCBE40680021FFF7C0BE8E
:1050AC004068002281F00101FFF792BE40680022A7
:1050BC00FFF79EBE002240681146FFF7A1BE0022FA
:1050CC0040681146FFF78CBE2DE9F04395B01446AD
:1050DC000D460746FFF760FF00211C220DA800912A
:1050EC0000F060FF40230C9320466B460CAA002175
:1050FC00FFF752FD044600284BD102460121686897
:10510C00FFF74EFE0221804622466868FFF748FEF4
:10511C00009E81462146002E3BD0002939D1736870
:10512C00022B03D00A2B11D0F669F4E7B8F1000F6B
:10513C00FAD0716906A8043107ADFFF771FF0FCDE6
:10514C003C1D0FC42B6823704146EDE7B9F1000FED
:10515C00EAD07469102201A800F024FF06238DF810
:10516C00143001AD04F108031834186859682A4644
:10517C0003C20833A3421546F7D101A906A807AD0F
:10518C00FFF718FF0FCD3C1D0FC42B682370494649
:10519C00CAE70098FFF7F8FC384615B0BDE8F08375
:1051AC00024B034A1A6000225A607047ECE6032057
:1051BC00CC610B00F8B506460D468F180024BD4295
:1051CC000CD0336815F8011B9B6830469847031EBA
:1051DC0001DB1C44F3E7002C08BF1C462046F8BD3D
:1051EC0013B50446084659B1019100F01BFF236822
:1051FC000199DB680246204602B0BDE81040184712
:10520C0002B010BD03689B68184730B58BB0002303
:10521C00012A8DF8243098BF0A2209AC0D46B1FB47
:10522C00F2F101FB125303F0FF03092B94BF30334F
:10523C003733DBB2AA4204F8013DEFD92146FFF720
:10524C00CFFF0BB030BD0000014B00229A607047BD
:10525C00F4E6032010B504460068FFF7F1FD204684
:10526C0010BD10B50446006808B1FFF7E9FD002336
:10527C00C4E90133236010BD38B504460D460068FF
:10528C000131FFF7E5FD10B1C4E90005012038BD7F
:10529C0010B50368044623B143688B4201D3012047
:1052AC0010BD2046FFF7E8FF0028F9D0A368002BBB
:1052BC00F5D122681370F2E737B50D46114601920D
:1052CC000446FFF7E5FF019A28B92046FFF7C9FF0E
:1052DC00204603B030BDA2602946206800F054FE81
:1052EC002268A3680021D154F2E7002313B5C0E96A
:1052FC00003304468360037341B10846019100F00A
:10530C0091FE019902462046FFF7D6FF204602B0D7
:10531C0010BD13B5044659B10846019100F082FE48
:10532C00019902462046FFF7C7FF204602B010BD88
:10533C00FFF797FFF9E708B582683AB921B1087809
:10534C00B0FA80F0400900E0012008BD006809B9FE
:10535C000078F5E700F05CFEF2E70000054B022256
:10536C001A60054B054A9A600020C3E90000FFF75C
:10537C00C3BC00BF10E7032004E703200000FFFFBD
:10538C0013B503688DF80710DC6B01224FF0FF3367
:10539C000DF10701A04702B010BD10B40368DC6B1F
:1053AC004FF0FF33A4465DF8044B604713B513462A
:1053BC0002688DF80710D46B0DF107010122A0478C
:1053CC0002B010BD10B54369B3F88620B3F8843031
:1053DC009A42044608D06369B3F88420511CA3F8A0
:1053EC0084101344187910BD03681B699847002872
:1053FC00F1D14FF0FF30F6E7704743691868C043AE
:10540C00C00F704770470000064B994210B500F171
:10541C000C0405D0084600F09FFC002808BF0024AF
:10542C00204610BD68610B0010B5AC210446FEF798
:10543C0030FE204610BDAC21FEF72BBE2DE9F0410D
:10544C004FF0000886B01C46C0F8048005460E4696
:10545C0017464146102202A800F0A4FD631C09D097
:10546C004FF47A73B4FBF3F203FB1244CDE9022838
:10547C005C430494686910230093006802AB41F20A
:10548C00050240F6FF71FFF78FFB002807DAFFF7E4
:10549C00E7FC03686B60002006B0BDE8F08168692A
:1054AC00002300683A463146FFF79EFB031EEEDBF5
:1054BC001846F1E738B584690A4B036005467CB1A0
:1054CC006368013B63605BB9236820469B6898471F
:1054DC00A368013BA3601BB923682046DB6898478F
:1054EC00284638BD3C620B0010B50446FFF7E2FFBE
:1054FC0020461C21FEF7CDFD204610BD30B587B0EF
:10550C00044601AD6846FFF78BFD0FCD04340FC484
:10551C002B68237007B030BD70B54D69054B044640
:10552C008C3544F8043B06460FCD0FC42B68237012
:10553C00304670BDB4610B002DE9F043984603680A
:10554C0093B00D460024DB6A06461746984728465A
:10555C006B46224621460094FFF71EFB05460028A9
:10556C0063D1009B002B4BD05B69002B48D006A865
:10557C00FFF712FD009B5C696378022B04D1211D9F
:10558C0006A8FFF7BBFF26E00A2B24D111222946DF
:10559C0001A800F007FDA368002B38D004F1080324
:1055AC000DF1040C183418685968624603C20833AC
:1055BC00A3429446F7D1062301A90CA88DF8143008
:1055CC00FFF7F8FC0DF1340CBCE80F0007AC0FC46E
:1055DC00DCF80030237006A8FFF7FEFC80B13368BE
:1055EC0007ADD3F82090124B0C930FCD0DAC0FC41C
:1055FC002B6823703A4643460CA93046C8470546EB
:10560C000098FFF7C1FA284613B0BDE8F083E368B1
:10561C00002BC3D14FF6FF70D4F81090FFF7A4FA0B
:10562C008145BBD104F11401AAE72546E8E700BF88
:10563C00B4610B0038B543691A68002A054610DAC4
:10564C00B3F88620B3F884309A420AD103681B69F8
:10565C009847044628B92B682846DB6A98472046A9
:10566C0038BD0120FCE710B54369B3F88620B3F8C8
:10567C0084309A42044605D06369B3F884201344FD
:10568C00187910BD03681B6998470028F4D14FF0B6
:10569C00FF30F6E7F8B543691746B3F88620B3F840
:1056AC0084309A4205460E4616D06969B1F88430AA
:1056BC00B1F88640E41ABC4228BF3C46043322466B
:1056CC001944304600F060FC6A69B2F88430234417
:1056DC00A2F884302046F8BD03681B69984700285F
:1056EC00E3D14FF0FF34F5E742690023A2F8843090
:1056FC004269A2F8863070472DE9F0411F460368D5
:10570C000C46DB6A8AB0054616469847237DD5F8C9
:10571C001480042B0CBF02200A2006220121FFF763
:10572C006BFAC8F800006B691B68002B08DA2B6851
:10573C002846DB6A0024984720460AB0BDE8F08171
:10574C002846FFF7D1FFB7B1002303A9F8B20393A2
:10575C00ADF81030FFF7F8F90028E8D16869062396
:10576C000093006803AB41F20B0240F6FF71FFF7A8
:10577C001BFA0028DBD11C22002103A800F012FC2C
:10578C00237D042B1DD14FF407733046ADF80C303C
:10579C00FFF7F2F9ADF80E006068FFF7E5F9049039
:1057AC006B691C22186803A9FFF70EFA0028BED1FA
:1057BC0004340FCC6D698C350FC523682B70012414
:1057CC00BAE740F61C233046ADF80C30FFF7D4F99D
:1057DC0005AEADF80E00231D04F1140718685968C6
:1057EC00324603C20833BB421646F7D1D8E7000055
:1057FC0030B54269B2F886308BB004462BB1B2F8A2
:10580C0084209A4201D1FFF76FFF61690868002874
:10581C0018DBB1F886507F2D14D804310823C5F15C
:10582C0080022944FFF7D8F9002813DD6369B3F827
:10583C0086200AB9A3F884206369B3F88620104443
:10584C00A3F886006369B3F88600B3F88430C01AF5
:10585C000BB030BDFFF704FB03680B2BF2D0FFF746
:10586C00FFFA03680B2BEDD020230025CDE9023580
:10587C00FFF7F6FA03680193084B0949009302AA53
:10588C002B463220FFF730FA63691868FFF794F95A
:10589C0063694FF0FF321A60D4E700BF07620B0058
:1058AC0000620B0010B5436904461868002801DB40
:1058BC00FFF782F963694FF0FF321A6060691122B9
:1058CC0000218C3000F06EFB2046BDE81040FFF745
:1058DC000BBF10B5002304460160C0F8843088303B
:1058EC00FFF75AFB204610BD73B500234FF47A72B4
:1058FC00C0E901320E4A0361026043610446AC20E8
:10590C000191FEF7C0FB051E05F10C0608D0012322
:10591C00C5E90133074B01992B603046FFF7D9FFDE
:10592C002046C4E90565FFF7DFFE02B070BD00BF7D
:10593C003C620B0020620B0010B54FF0FF310446A7
:10594C00FFF7D2FF204610BD10B5044600680028B2
:10595C0001DBFFF731F9204610BD0C30FFF7F4BF27
:10596C00024B1A68024B1A60704700BF0CE603200A
:10597C0014E7032070474174704708B5007CFFF7AB
:10598C006BF920EAE07008BD08B5007CFFF744F91C
:10599C0020EAE07008BD08B5007CFFF74DF940EA3D
:1059AC00E07008BD08B5007CFFF73EF940EAE070F6
:1059BC0008BD007CFFF748B937B5457C04462DB1CE
:1059CC00207C03B0BDE83040FFF71EB9007C01918C
:1059DC00FFF742F900280199F2DC284603B030BDEC
:1059EC0010B514210446FEF754FB204610BD0000F0
:1059FC0010B54FF47A730446084611460022C4E9E8
:105A0C000123044B2360012320746374FFF72CF9EA
:105A1C00204610BDA4620B0041747047704770475C
:105A2C0008B50021007CFFF747F940EAE07008BD9B
:105A3C0008B50121007CFFF73FF940EAE07008BD92
:105A4C0008B5007CFFF730F920EAE07008BD08B516
:105A5C00007CFFF721F920EAE07008BD13B504467D
:105A6C00007C0191FFF720F90028019901DC607C92
:105A7C0020B1207CFFF728F920EAE07002B010BDBD
:105A8C00007CFFF729B910B514210446FEF701FB81
:105A9C00204610BD10B54FF47A7304460846002119
:105AAC00C4E90113044B2360012320746374114671
:105ABC00FFF7E2F8204610BDD4620B00007C0022F8
:105ACC00FFF7E2B810B514220446002100F06AFA80
:105ADC00204610BD10B50F4C88B003A8FFF7F2FF9D
:105AEC002178BFF35B8F11F001010FD1204601919A
:105AFC00FEF7D1FA019948B103AA0748FFF7CAFF8C
:105B0C002046FEF7CDFA054800F038FA024808B0F6
:105B1C0010BD00BF18E703201CE70320295A0B0017
:105B2C00002240681146FFF73BB90022406811463D
:105B3C00FFF756B9002240681146FFF761B940687B
:105B4C000022FFF755B94068002281F00101FFF7F0
:105B5C003FB9002340681A461946FFF731B90023B4
:105B6C0040681A461946FFF723B9002240681146CF
:105B7C00FFF706B9406800220221FFF709B900239C
:105B8C0040681A46FFF7F4B8024B04225A60024AE6
:105B9C001A60704730E7032004630B00014B186058
:105BAC00704700BF10E6032008B50B4B43B1FFF75D
:105BBC0091FF03681B699847002801DDAFF3008053
:105BCC00064B43B100F0A2F803681B699847002804
:105BDC0001DDAFF3008008BD0000000000000000F4
:105BEC0008B5FFF7E1FFFEF7A7FF014B186008BDF2
:105BFC0040E703200548064A064908B5121A00F08A
:105C0C00C3F9054B054A1A6008BD00BF00F4032018
:105C1C0004F40320F4640B0000F403201E1C279AE8
:105C2C0007B5002300931A466FF07701FFF786F84B
:105C3C0003B05DF804FB000007B543880A2B08D0BD
:105C4C00502B0BD1094B1B684BB103B05DF804EB27
:105C5C001847FFF7E5FF03B05DF804FB0023009342
:105C6C001A466FF07701FFF769F8F4E73CE7032079
:105C7C0010B512480021FFF703F9114B1A68114BAC
:105C8C009A42114B0CBF012200221A7001D0FFF76F
:105C9C00B1FFFEF749FF044600F08CF90B4B13B132
:105CAC002046AFF3008000210848FFF759F8BDE803
:105CBC00104007480021FFF737B800BFA95B0B0065
:105CCC0000F403201E1C279A38E703200000000074
:105CDC00455C0B007047000038B5044614252A4675
:105CEC00002100F05FF925804025074925812846D1
:105CFC00258200F02FF804496060284600F02AF84D
:105D0C00E060204638BD00BF38630B0030B50E4D47
:105D1C002978BFF35B8F11F0010487B011D12846AD
:105D2C00FEF7B9F968B101A8FFF7D6FF01AA214621
:105D3C000648FFF75DFE2846FEF7B2F9044800F06E
:105D4C001DF9024807B030BD44E7032048E70320A3
:105D5C00E15C0B00FEF799B9014900F0F9B800BFFE
:105D6C0054630B007FB500241023CDE90234036883
:105D7C0015469E6912686B46CDE90044B0479DF804
:105D8C00043003F00603062B03BF009B2B6001209D
:105D9C00204604B070BD0098904214BF012006202C
:105DAC007047000010B5034B0360044600F0CDF8BB
:105DBC00204610BD94630B0010B50446FFF7F2FFAC
:105DCC0020460821FEF765F9204610BD2DE9F0416B
:105DDC001F46DDE90834DDF818809845064615465F
:105DEC0007D1079900F0B4F818B165710020BDE82F
:105DFC00F0813946304600F0ABF80028F6D001238C
:105E0C00C4F800802571A371F0E738B515461C461F
:105E1C0000F09EF820B10823E3600623256023716F
:105E2C0038BD73B505460C4601921E4600F090F83D
:105E3C0050B9032E08D82368019A5B69294620467D
:105E4C0002B0BDE87040184702B070BD10B5034BEE
:105E5C0003600446FFF7A6FF204610BDF4630B0059
:105E6C0010B50446FFF7F2FF20460C21FEF711F99E
:105E7C00204610BDF7B5089F974205460E461446BE
:105E8C000AD0A86802680897156A31462246AC46C3
:105E9C0003B0BDE8F04060471946019300F058F894
:105EAC00019B0028EDD0062003B0F0BD2DE9F14F89
:105EBC000D461946DDE90A4BDDE90CA6814617466D
:105ECC00984600F045F890B1002D3460377109DB2D
:105EDC0061198A450CBF06210121B171002001B066
:105EEC00BDE8F08F0235F9D10123B371F6E75445C3
:105EFC0006D15946484600F02BF808B17771EDE70A
:105F0C00D9F808000368CDE90CA6CDE90A4BDC6989
:105F1C003A4643462946A44601B0BDE8F04F6047D7
:105F2C002DE9F04107460C4615461E46FFF76DFF5E
:105F3C0048B9B86803689F692A4633462146BC466F
:105F4C00BDE8F0416047BDE8F08170470020704724
:105F5C00814208B50ED0406803782A2B0CD04968D2
:105F6C000B782A2B08BF013100F052F8B0FA80F000
:105F7C00400908BD0120FCE70020FAE70023014698
:105F8C001A46184600F056B80A44914200F1FF3305
:105F9C0000D1704710B511F8014B03F8014F914235
:105FAC00F9D110BD02440346934200D1704703F867
:105FBC00011BF9E738B5104B1D68AB6B0446B3B940
:105FCC001820FEF735FF0246A86320B90B4B0C488E
:105FDC004221FEF74DFF0B490B4BC0E900130B4B55
:105FEC0083600B23838100210120C2E90401AB6B88
:105FFC0000221C615A6138BD10E603202D640B0091
:10600C0044640B000E33CDAB34126DE6ECDE0500B0
:10601C0010F8012B11F8013B012A28BF9A42F7D046
:10602C00D01A7047034613F8012B002AFBD1181A1B
:10603C00013870472DE9F843DFF8B8800646D8F8E8
:10604C0000001F460D46914600F056F8254B1C6883
:10605C0034B9254C1C60254B13B11B68C4F888302F
:10606C0063681F2B07DDD8F8000000F047F84FF0ED
:10607C00FF30BDE8F8834EB3D4F8880088B91C4BC8
:10608C0023B9D8F8000000F038F8F0E74FF484702A
:10609C00FEF7CEFE0028F4D00023C0E94033C4F84C
:1060AC008800636840F8239001229A4000EB83013A
:1060BC00D0F800311343C0F80031022EC1F88070C3
:1060CC0002BFD0F804311343C0F804316368D8F828
:1060DC0000005A1C0233626044F8235000F00EF8A2
:1060EC000020C6E7E8E703205CE70320000000007F
:1060FC003D4E0B0074E6032070477047704700005C
:10610C001D400B0059400B0081400B0085400B00DB
:10611C00000000003100656173744C69676874009D
:10612C00300032006E6F7274684C6967687400726C
:10613C006F616453656E736F7273006C61622E7461
:10614C00686577636C2E636F6D0000044D51545479
:10615C000400064D514973647003000000000000F8
:10616C00000000000000000000000000134F0B00B6
:10617C00094F0B00FF4E0B00F54E0B00E94E0B00C8
:10618C00DD4E0B009D500B00A5500B00D14E0B00AB
:10619C00C94E0B00BF4E0B00B54E0B00D5500B007B
:1061AC000000000000000000414F0B00314F0B00BD
:1061BC00334F0B0061707000000000000000000005
:1061CC005D500B0067500B0071500B007B500B00A7
:1061DC0085500B0091500B009D500B00A5500B00EF
:1061EC00AD500B00B9500B00C1500B00CB500B0045
:1061FC00D5500B00776972696E6700726563762003
:10620C006572726F72203D20256400000000000052
:10621C000000000011540B0035540B0067590B00A3
:10622C0043540B0015540B0000000000000000004C
:10623C00C1540B00F5540B008D530B00A7530B00EE
:10624C00FD570B00D1530B0073560B0005540B007C
:10625C0005570B0045550B00A1560B00B1580B0010
:10626C0041560B0007540B00B9530B0049540B005B
:10627C0025550B0025592D256D2D25645425483A9F
:10628C00254D3A2553257A0061736374696D650059
:10629C00000000000000000081590B00ED590B00BC
:1062AC00C5590B00C1510B0095590B00B1590B008E
:1062BC00A3590B00BF590B0083590B0087590B00D6
:1062CC0000000000000000002B5A0B00935A0B003A
:1062DC00695A0B00C1510B005B5A0B002D5A0B0075
:1062EC003D5A0B008D5A0B004D5A0B00255A0B00D2
:1062FC0000000000000000008B5B0B00815B0B00BA
:10630C00775B0B002D5B0B006B5B0B005F5B0B007B
:10631C009D500B00A5500B00535B0B004B5B0B000F
:10632C00415B0B00375B0B00D5500B0000537431F5
:10633C00395F53705F6D616B655F73686172656423
:10634C005F7461670000000094630B0039630B00FD
:10635C00F4630B0068630B0018640B004E31305F64
:10636C005F637878616269763131375F5F636C6146
:10637C0073735F747970655F696E666F45000000BA
:10638C00000000005C630B00B15D0B00C55D0B00F1
:10639C00595F0B00595F0B002F5E0B00715D0B00FA
:1063AC00175E0B00D95D0B00A35D0B00F4630B00B3
:1063BC00C4630B005C630B004E31305F5F63787815
:1063CC00616269763132305F5F73695F636C6173F0
:1063DC00735F747970655F696E666F4500000000CD
:1063EC0000000000B8630B00595E0B006D5E0B00E3
:1063FC00595F0B00595F0B002F5E0B00715D0B009A
:10640C002D5F0B00B95E0B00815E0B0094630B00DB
:10641C0020640B00537439747970655F696E666F14
:10642C00005245454E54206D616C6C6F6320737542
:10643C0063636565646564002F746D702F6A656EA7
:10644C006B696E732D4743432D31302D7069706528
:10645C006C696E652D34385F323032303131323404
:10646C005F313630363138303633392F7372632F13
:10647C006E65776C69622F6E65776C69622F6C69DB
:10648C0062632F7374646C69622F72616E642E6325
:10649C000000000041420B00A54E0B001D4F0B00ED
:1064AC004D500B00AD510B0055520B0069530B00B6
:1064BC006D590B00955B0B00000000000000000004
:0464CC0000000000CC
:1064D000040000001400000003000000474E5500B7
:1064E0008238380A171CBEA7B46AC2D6E00461120B
:0464F000DAFB30F1B2
:0464F40000000000A4
:1064F80094620B0014E60320000000000000000076
:106508000000000000000000000000000000000083
:106518000000000000000000000000000000000073
:106528000000000000000000000000000000000063
:106538000000000000000000000000000000000053
:106548000000000000000000000000000000000043
:0C6558000000000000000000ECE7032041
:10656400FFFFFFFF00000102030405060708090AF4
:106574000B0C0D0E0F101112131415161718191AEF
:086584001B1C1D1E1F20280036
:04658C0078563412F7
:04000003B000401CED
:00000001FF
